:020000040800F2
:10000000FCFF0020E9190000CD190000CD19000007
:10001000CD190000CD190000CD190000CD19000048
:10002000CD190000CD190000CD190000CD19000038
:10003000CD190000CD190000CD190000CD19000028
:10004000CD190000CD190000CD190000CD19000018
:10005000CD190000CD190000CD190000CD19000008
:10006000CD190000CD190000CD190000CD190000F8
:10007000CD190000CD190000CD190000CD190000E8
:10008000CD190000CD190000CD190000CD190000D8
:10009000CD190000CD190000CD190000CD190000C8
:1000A000CD190000CD190000CD190000CD190000B8
:1000B000CD190000CD190000CD190000CD190000A8
:1000C000CD190000CD190000CD190000CD19000098
:1000D000CD190000CD190000CD190000CD19000088
:1000E000CD190000CD190000CD190000CD19000078
:1000F000CD190000CD190000CD190000CD19000068
:10010000CD190000CD190000CD190000CD19000057
:10011000CD190000CD190000CD190000CD19000047
:10012000CD190000CD190000CD190000CD19000037
:10013000CD190000CD190000CD190000CD19000027
:10014000CD190000CD190000CD190000CD19000017
:1001500001480068704700BFB400002081B0194911
:1001600000EA0101084600220EE0042022E00820F7
:1001700020E010201EE020201CE040201AE080201B
:1001800018E040F2001015E00F498842EDD00F4909
:100190008842ECD00E498842EBD00E498842EAD022
:1001A0000D498842E9D00D498842E8D00C4988427F
:1001B000E7D010460B49096841EA000209490A6084
:1001C00001B0704700FCFFFF00080140000C014037
:1001D000001001400014014000180140001C0140C3
:1001E000002001401810024083B0CDF800E000F07C
:1001F000FF031A09104603F00F02134614E0194AD0
:1002000002921FE0184A02921CE0184A029219E07A
:10021000174A029216E0174A029213E0164A029217
:1002200010E0164A02920DE00028E8D00128E9D03B
:100230000228EAD00328EBD00428ECD00528EDD022
:100240000628EED0012212B29A40ADF8042002989E
:100250000A46BDF8041000F021F9DDF800E003B013
:10026000704700BF00080140000C01400010014031
:100270000014014000180140001C01400020014012
:1002800082B0CDF800E0034619460191FFF760FF08
:1002900040F2E83100FB01F201990A601F49097838
:1002A000C1F30311C8B21E4909180878C0B21A1D5B
:1002B0001968C140116019490988C1F3022188B247
:1002C000174909180878C0B203F20802191D096815
:1002D000C140116011490988C1F3C22188B2104997
:1002E00009180878C0B203F20C02191D0968C14050
:1002F00011600A490988C1F3813188B20949091896
:100300000978C8B203F2100203F20C010968B1FBCC
:10031000F0F11160DDF800E002B070470410024017
:10032000C81D0000E81D000081B000230360CB0061
:100330009BB242EA030304689BB244EA03030360EE
:10034000051D13141C462B6864F382032B6000F216
:100350001C0500242B6864F3CB232B600124036865
:1003600064F38613036001B07047FFFF81B0ADF8FE
:1003700000100146BDF800000B68C3F3C01202B9BB
:10038000FAE70A1D106001B07047FFFF81B0CDF899
:1003900000E0012252B23E490A6000F268010B6897
:1003A0006FF0006103EA0102144603F00061C90E18
:1003B0000B4602F00041B1F1004F02D135490A6805
:1003C00001E035490A6804F47021090C0E464FF625
:1003D000FF7104EA01010D4604F44011B1F5401F1C
:1003E0000DD16FF0706102EA01010E462A490A68D8
:1003F0006FF070610A4028490A60324616E004F442
:100400008011B1F5801F09D14FF00301B140C943FC
:1004100002EA010141F070610A4607E0610D09013D
:1004200005FA01F1C9430A4042F070622BB1610D37
:10043000090105FA01F10A43FFE704F00041B1F1B7
:10044000004F02D113490A6001E013490A6040F2EB
:10045000000A81464FEA8A0109EB01010968B1F1FE
:10046000FF3F10D009F134014FEA8A03C918096827
:100470000A4609EB0301096808461146FFF7B4FE76
:100480000AF1010AE6E7DDF800E001B0704700BFBD
:10049000000342421C0001400400014081B0CDF83D
:1004A00000E08CB21546774B00EA03031E4618465F
:1004B000FFF754FEB4F1FF0F0CD1734B9D4203D1F3
:1004C0004FF033333360D9E0422D03D14FF0443342
:1004D0003360D3E04FF6FF739C4214D16A4B9D42C8
:1004E00007D14FF033333360341D4FF03333236083
:1004F000C4E0422D07D14FF044333360341D4FF038
:1005000044332360BAE00021002005F001030BB161
:1005100000211DE005F0020333B105F4C0730BB1F7
:10052000082100E0042113E005F0040333B105F0D5
:1005300020030BB1042100E0002109E005F00803CD
:1005400033B105F020030BB10C2100E00821FFE7D7
:100550004E4B05EA03030BB1032009E005F40073D9
:100560000BB1022004E005F480630BB10120FFE72A
:1005700005F00C030BB10143FFE704F0FF039BB24E
:10058000002B3BD0376800201FFA84F832462E46F5
:1005900008282CD24FF0010303FA00F408EA040300
:1005A000A34222D185004FF00F03AB40DB4307EAA3
:1005B000030401FA05F344EA03031D4606F48173BC
:1005C000B3F5817F05D102F214044FF0010383409B
:1005D000236006F08203822B05D102F210044FF053
:1005E0000103834023602F46FFE7401CD0E71760DC
:1005F0001FFA88F00F463146164602E00F4629469C
:10060000A0B2B0F1FF0F39D9331DD3F8008000221A
:10061000082A30D202F208044FF0010303FA04F46E
:1006200000EA0403A34224D195004FF00F03AB402E
:10063000DB4308EA030807FA05F348EA030801F474
:100640008173B3F5817F07D106F2140502F2080425
:100650004FF00103A3402B6001F08203822B07D1EE
:1006600006F2100502F208044FF00103A3402B60CC
:10067000FFE7521CCCE7331DC3F80080DDF800E033
:1006800001B0704700FCFFFF1400080000080800DC
:1006900081B000F20C02116000F208021368C3F38B
:1006A000000202B9F8E700F20C02126890B201B041
:1006B0007047FFFF89B0CDF800E0834698B28C46C2
:1006C000BDF824100A9E04ACADF80410ADF8080083
:1006D0002046FFF7D5FDBDF80800BDF80410644CB6
:1006E000A34512D101256DB2624C2560624D634C69
:1006F0002560634D634C2560634D644C2560644DFB
:10070000644C2560079C039456E0634CA34512D1CA
:1007100001256DB2614C2560614D584C2560614DDD
:10072000584C2560604D594C2560604D594C2560F2
:10073000069C039440E05E4CA34512D101256DB2A6
:100740005C4C25605C4D4D4C25605C4D4D4C2560EE
:100750005B4D4E4C25605B4D4E4C2560069C0394D2
:100760002AE0594CA34512D101256DB2574C2560A2
:10077000574D424C2560574D424C2560564D434CD9
:100780002560564D434C2560069C039414E0544C60
:10079000A34511D101256DB2524C2560524D374C05
:1007A0002560524D374C2560514D384C2560514DD8
:1007B000384C2560069C0394ADF80410ADF8080091
:1007C0003046FFF7E3FDBDF80800BDF804100BF15B
:1007D000100500242C600BF110052C680C432C60D4
:1007E0000BF10C0500242C6018B140F4806080B23D
:1007F000FFE70BF10C052C6804432C600BF10C0691
:100800000125346865F34D3434600BF10C06012585
:10081000346865F3C30434600BF10C0601253468B9
:1008200065F3820434600BF1140500242C60039DF1
:10083000192465434FEA8C04B5FBF4F76424B7FB35
:10084000F4F42601350964246C433C1B240104F2B2
:1008500032056424B5FBF4F404F00F0446EA040402
:100860000BF10805A4B22C60DDF800E009B0704778
:100870000038014038034242FD090000C00000205A
:10088000FFFFFFFFC4000020FFFFFFFFC8000020A4
:10089000FFFFFFFFCC00002000440040C4034242A1
:1008A000B9090000FFFFFFFFFFFFFFFFFFFFFFFF92
:1008B00000480040C803424249090000FFFFFFFF13
:1008C000FFFFFFFFFFFFFFFF004C0040CC03424251
:1008D000190A0000FFFFFFFFFFFFFFFFFFFFFFFF01
:1008E00000500040D0034242110B0000FFFFFFFF09
:1008F000FFFFFFFFFFFFFFFF81B0CDF800E0019D8C
:100900002C4610B408B493B28AB201460348FFF7EC
:10091000D1FE02B0DDF800E001B0704700440040B5
:1009200081B0CDF800E0019D2C4610B408B493B21C
:100930008AB201460348FFF7BDFE02B0DDF800E0D1
:1009400001B070470048004081B0CDF800E081B2AE
:100950000348FFF70BFDDDF800E001B0704700BF72
:100960000048004081B0CDF800E081B20348FFF7B5
:100970008FFEDDF800E001B0704700BF003C004092
:1009800081B0CDF800E081B20348FFF781FEDDF8C9
:1009900000E001B0704700BF0038004081B0CDF8E2
:1009A00000E081B20348FFF773FEDDF800E001B01C
:1009B000704700BF0030014081B0CDF800E081B247
:1009C0000348FFF7D3FCDDF800E001B0704700BF3B
:1009D0000044004081B0CDF800E0019D2C4610B4E9
:1009E00008B493B28AB201460348FFF763FE02B02F
:1009F000DDF800E001B070470038014081B0CDF86B
:100A000000E081B20348FFF7B1FCDDF800E001B07F
:100A1000704700BF0038014081B0CDF800E081B2DE
:100A20000348FFF7A3FCDDF800E001B0704700BF0A
:100A3000004C004081B0CDF800E081B20348FFF7E0
:100A400027FEDDF800E001B0704700BF003800402D
:100A500081B0CDF800E081B20348FFF719FEDDF860
:100A600000E001B0704700BF0030014081B0CDF818
:100A700000E0044A89B2FFF711FDDDF800E001B0A3
:100A8000704700BF1400080081B0CDF800E081B2CB
:100A90000348FFF7FDFDDDF800E001B0704700BF3F
:100AA000003C004081B0CDF800E04FF0420289B236
:100AB000FFF7F4FCDDF800E001B0704783B0CDF83B
:100AC00000E08DF8040002910B4C0C4B1C600C4CA8
:100AD0000C4B1C60012464B20B4B1C601046FFF7EA
:100AE00055FC029A9DF804100848FFF71DFCDDF83C
:100AF00000E003B0704700BF890A0000B800002082
:100B000065090000BC000020BC034242003C0040DC
:100B100081B0CDF800E081B20348FFF727FCDDF893
:100B200000E001B0704700BF00500040014908607C
:100B3000704700BF9881224201490860704700BF9A
:100B40009481224201490860704700BF9C81214284
:100B500001490860704700BF98812142014908603F
:100B6000704700BFAC01224201490860704700BFD6
:100B7000A801224201490860704700BFB00122422B
:100B800001490860704700BFB081224201490860F6
:100B9000704700BFB0812242026803490A60011D0C
:100BA0000A6802490A607047B0000020A8000020CF
:100BB00081B010B5904208BF2AE040EA02044FEA33
:100BC0004404002C08BF23E0440004D1944201D423
:100BD000A41C012C1CE04FEA40044FEA1464FF2CD3
:100BE0000AD14FEA42044FEA1464FF2C04D14FEAC1
:100BF000D274B4EBD0340BE0002A06D4002802DC17
:100C00000024012C04E0904202E0002848BF824208
:100C1000BDE8104001B0704781B0009101460098D6
:100C20000B461C465A1C15460346421C10461A78B1
:100C3000227022780AB12B46F3E7084601B07047CC
:100C400084B0CDF800E0ADF80C2001900291BDF821
:100C50000C40BDF80C305B1EADF80C307CB1019B34
:100C60001B78DCB2A0B2084C2468A047029B187025
:100C7000029B5B1C0293019B5B1C0193E7E7DDF881
:100C800000E004B0704700BFA800002081B0FAB5B2
:100C900090EA02064CBF4FF000464FF000060102FA
:100CA00043001B0E12BF41F000414FF000003BE03B
:100CB000FF2B35D05FEA02245FEA42055FEA156543
:100CC00011BF44F000444FF0FF4030432CE0FF2DB3
:100CD00026D05B1B0020202764084908A14240EB76
:100CE000000028BF091B7F1E04D0002918BF49003F
:100CF000F4D1B84010F0004F04BF4000B3F101033D
:100D000080302CBF5B1C40007F33DCBF4FF0000005
:100D10000AE0FF2B04D2400A40EAC350304303E00C
:100D2000FF27FF0556EA0700BDE8FA4001B070470B
:100D300081B0FAB590EA02064CBF4FF000464FF082
:100D400000064FEA00214FEA40031B0E12BF41F09C
:100D500000414FF000002CE0FF2B26D04FEA022488
:100D60004FEA42052D0E12BF44F000444FF0000040
:100D70001FE0FF2D19D05B19A1FB0454002C5CBFB0
:100D800064005B1E803424BF5B1C64087E3BDCBFB8
:100D90004FF000000DE0FF2B07D24FEA142030F493
:100DA000000040EAC350304303E0FF27FF0546EA56
:100DB0000700BDE8FA4001B07047FFFF81B0CDF8F1
:100DC00000E00178CCB2A0B2034C2468A047002018
:100DD000DDF800E001B07047A400002000F2080137
:100DE0000A6801490A607047AC00002083B0CDF862
:100DF00000E08AB2014690B283B2421E90B26BB15B
:100E00000A78D4B2ADF804000291A0B2054C24686F
:100E1000A0470299BDF80400491CEDE7DDF800E0A9
:100E200003B07047B000002081B0002808BF0FE079
:100E300002B54FF09E0202D4521E4000FCD5803015
:100E40002CBF521C4000400A40EAC250BDE802409C
:100E500001B0704701490860704700BFB881224265
:100E600081B0CDF800E0094902B440F2000340F23D
:100E7000000240F20001FFF73FFD01B0044A0549BE
:100E80000A600020DDF800E001B07047B81B0000E8
:100E9000B9090000A400002081B0CDF800E00949A4
:100EA00002B440F2000340F2000240F20001FFF7FA
:100EB00091FD01B0044A05490A600020DDF800E018
:100EC00001B07047241C0000FD090000A4000020B0
:100ED00001490860704700BF900121420149086044
:100EE000704700BFB481224201490860704700BFCB
:100EF0008801224281B0CDF800E0094902B440F2F5
:100F0000000340F2000240F20001FFF7F5FC01B0DF
:100F1000044A05490A600020DDF800E001B070478E
:100F2000B81B0000B9090000A400002081B0CDF872
:100F300000E0A9E0012905D140F220016548FFF752
:100F4000B1FD04E040F220016248FFF78FFDBBE0F5
:100F5000012905D140F208015F48FFF7A3FD04E035
:100F600040F208015C48FFF781FDADE0012905D1A1
:100F700044F200015948FFF795FD04E044F20001F6
:100F80005648FFF773FD9FE0012905D140F200416B
:100F90005148FFF787FD04E040F200414E48FFF75B
:100FA00065FD91E0012905D140F600014A48FFF7AF
:100FB00079FD04E040F600014748FFF757FD83E064
:100FC000012905D141F200014348FFF76BFD04E020
:100FD00041F200014048FFF749FD75E0012905D1C4
:100FE00041F200013D48FFF75DFD04E041F20001E0
:100FF0003A48FFF73BFD67E0012905D140F60001C3
:101000003648FFF74FFD04E040F600013348FFF794
:101010002DFD59E0012905D140F240012F48FFF78D
:1010200041FD04E040F240012C48FFF71FFD4BE07A
:10103000012905D140F220012848FFF733FD04E0E3
:1010400040F220012548FFF711FD3DE0012905D1BF
:1010500040F240012248FFF725FD04E040F2400144
:101060001F48FFF703FD2FE0012905D140F2800161
:101070001B48FFF717FD04E040F280011848FFF716
:10108000F5FC21E0012020E000283FF453AF0128C7
:101090003FF45EAF02283FF469AF03283FF474AF1A
:1010A00004283FF47FAF05283FF48AAF06283FF4B9
:1010B00095AF0728A0D00828ACD00928B8D00A28B6
:1010C000C4D00B28D0D0DDE70020DDF800E001B06F
:1010D000704700BF000801400010014000140140AB
:1010E000000C014081B0CDF800E0A9E0012905D154
:1010F00040F210016548FFF7D5FC04E040F2100112
:101100006248FFF7B3FCBBE0012905D140F20401BE
:101110005F48FFF7C7FC04E040F204015C48FFF7BA
:10112000A5FCADE0012905D142F200015948FFF7C5
:10113000B9FC04E042F200015648FFF797FC9FE03B
:10114000012905D140F200415148FFF7ABFC04E012
:1011500040F200414E48FFF789FC91E0012905D19A
:1011600040F600014A48FFF79DFC04E040F600010C
:101170004748FFF77BFC83E0012905D141F20001DC
:101180004348FFF78FFC04E041F200014048FFF7BD
:101190006DFC75E0012905D140F201013B48FFF7E4
:1011A00081FC04E040F201013848FFF75FFC67E092
:1011B000012905D140F200413648FFF773FC04E0F5
:1011C00040F200413348FFF751FC59E0012905D1B5
:1011D00040F200212F48FFF765FC04E040F20021B7
:1011E0002C48FFF743FC4BE0012905D140F20011E8
:1011F0002848FFF757FC04E040F200112548FFF7AC
:1012000035FC3DE0012905D140F240012248FFF7BD
:1012100049FC04E040F240011F48FFF727FC2FE0A3
:10122000012905D140F280011B48FFF73BFC04E097
:1012300040F280011848FFF719FC21E0012020E06E
:1012400000283FF453AF01283FF45EAF02283FF47B
:1012500069AF03283FF474AF04283FF47FAF05283B
:101260003FF48AAF06283FF495AF0728A0D008289E
:10127000ACD00928B8D00A28C4D00B28D0D0DDE7DC
:101280000020DDF800E001B0704700BF0008014019
:101290000010014000140140000C014081B0CDF865
:1012A00000E0011D0A680168C8B21146034AFFF751
:1012B00005FC0020DDF800E001B07047901C000044
:1012C00081B0CDF800E0094902B440F2000340F2D9
:1012D000000240F20001FFF723FB01B0044A054978
:1012E0000A600020DDF800E001B070474C1B0000F0
:1012F00049090000A400002081B0CDF800E0011DE4
:101300000A680168C8B21146034AFFF7D7FB0020FC
:10131000DDF800E001B07047901C00000149086052
:10132000704700BFA081224201490860704700BF9A
:10133000A481224201490860704700BFA88122426F
:1013400001490860704700BF988121420149086047
:10135000704700BF8C01224201490860704700BFFE
:101360009401214201490860704700BF9C812142DD
:1013700001490860704700BF8001214201490860AF
:10138000704700BFB001224201490860704700BFAA
:10139000A801224201490860704700BFAC01224207
:1013A00083B0CDF800E0024610460D228DF80820EB
:1013B0000A228DF809201FE0FFF700FD23E00278E4
:1013C0002AB10190FFF7FAFC0198401CF7E71AE0F8
:1013D00002782AB10190FFF7F1FC0198401CF7E771
:1013E00002AA1046FFF7EAFC0DF109021046FFF7CA
:1013F000E5FC08E0062007E00029DDD00129DED069
:101400000229E5D0F6E70020DDF800E003B07047E0
:1014100081B0CDF800E00B46FFF706FD1A46FFF756
:1014200087FC044AFFF732FC0046DDF800E001B01B
:10143000704700BF00007F4381B0014640F20005C5
:101440002DB208460C460B46FFE70178202901D152
:1014500005B904E001252DB201782170641C024613
:10146000401C11780029F0D1184601B07047FFFFE9
:1014700041F6FF27C0F2B7077F1EFDD100BF00BFB6
:1014800000BF00BF00BF704781B0CDF800E05FFA39
:1014900081F95FFA82FA0FE05FFA8AF15FFA89F068
:1014A000FFF720FE0DE05FFA8AF15FFA89F0FFF79F
:1014B0003DFD06E0012004E00028EDD00128F2D037
:1014C000F8E7DDF800E001B07047FFFF82B0CDF82B
:1014D00000E002460C460020002149B20192019A28
:1014E000B2F1FF3F06D1714A11462046FFF794FB47
:1014F0000320D7E0012501AAD21C127802F0800255
:10150000D2B272B101AAD31C1A7882F080021A708A
:101510006A1CD3B22D222270621C1446DEB2A2468F
:1015200001E0A246EEB2019A32B9614A1146504634
:10153000FFF772FB0020B5E0019AB2F1FF4F06D130
:101540005C4A11465046FFF767FBF0B2AAE05FFA2B
:1015500080F94FFA81F8019A4FF07E50FFF728FB8F
:1015600040F2000000DD012048B1019A5248FFF727
:10157000DFFB0190A8F101084FFA88F8EBE7019A28
:101580004D48FFF715FB40F2000000DC012048B198
:10159000019A4A48FFF7CCFB019008F101084FFA85
:1015A00088F8ECE7019A5200019201AAD21C127845
:1015B0007F3AD0B201AAD31C01221A70019A82404C
:1015C000019201AAD21C127830328AF800200AF166
:1015D0000100B8F1010F06DBB8F1060F03DC054688
:1015E0005FFA89F103E02E220270451C01210620DA
:1015F0004FFA88F400B301AAD31C00221A70019A92
:101600009300019AD2180192019A5200019201AA04
:10161000D21C127830322A706D1C51B9621E52B23F
:1016200053B222B92E222A706D1C0121FFE75CB251
:10163000FFE7401EC0B2DDE7294660B24A1E1278BD
:10164000302A01D1491EF9E74A1E12782E2A01D10B
:10165000491EFFE710B365220A70491C002806DA0C
:101660002D220A70491C424250B243B200E043B2FC
:10167000D8B2DAB2092A07D90A22B0FBF2F2D2B202
:1016800030320A70491CFFE70A23B0FBF3F203FB78
:101690001202D2B230320A70481C00E00846002222
:1016A00002700020DDF800E002B070475F0000200B
:1016B000630000206500002000002041CDCCCC3D1F
:1016C00081B0CDF800E08B4609E05846FFF7E6FD13
:1016D0000AE05846FFF710FE06E0012004E000286B
:1016E000F3D00128F5D0F8E7DDF800E001B070474D
:1016F00081B0CDF800E011E00846FFF7E1FD16E00B
:101700000846FFF7F7FB12E00846FFF7C5FB0EE0BF
:101710000846FFF7A5FB0AE0012008E00028EBD00F
:101720000128EDD02028EFD03028F1D0F4E7DDF803
:1017300000E001B07047FFFF44F67F77C0F2120768
:101740007F1EFDD100BF00BF00BF00BF00BF7047BC
:1017500081B0CDF800E003460846FFF71DFA1846B1
:10176000FFF73CFB0020034C2468A047DDF800E0B5
:1017700001B07047AC00002082B0CDF800E001A9B4
:101780000520087000200A4C2468A04701A90DF12B
:1017900005000122FFF754FA0120054C2468A047F8
:1017A0000DF105000078DDF800E002B0704700BFE1
:1017B000AC00002082B0CDF800E001AB0021197030
:1017C000591C08709A1C20211170D91C0870002027
:1017D000074C2468A04701A908460421FFF706FB2F
:1017E0000120034C2468A047DDF800E002B07047F8
:1017F000AC00002081B01548006840F0010113489A
:101800000160134913480160104801681248014003
:101810000E4801600D4801686FF4802001400B48BC
:1018200001600C4801686FF4FE0001400948016046
:10183000064801686FF0A0500140044801604FF075
:1018400000010648016001B0704700BF001002406F
:101850000000FFF004100240FFFFF6FE2C100240D3
:1018600081B0CDF800E009490948FFF771FF094848
:101870000221FFF795FD08480221FFF791FDFFF7D0
:101880005BFFDDF800E001B0704700BFE01D000025
:10189000681D0000000000201500002081B01CF829
:1018A000019B0BF8019BBBEB0A0FF8D101B070470D
:1018B00081B0CDF800E0002202210020FFF7E4FD16
:1018C000074801460020FFF7FBFE42F2805101204D
:1018D000FFF70EFFFFF730FFDDF800E001B07047C3
:1018E000D81D000081B0CDF800E064211F480180C0
:1018F0001E480088B0F5807F2FD21C480088FFF773
:1019000059FFFFF739FF1A4908701A49FFF780FDA0
:101910001949086019480121FFF742FD164800687F
:101920001749FFF7D3FD1648FFF786FD012114483C
:10193000FFF736FD13480221FFF732FD124802215E
:10194000FFF72EFDFFF794FDFFF792FDFFF790FDE7
:10195000064908880A300880CAE70C480221FFF7C8
:101960001FFDDDF800E001B0704700BF6A000020F5
:1019700069000020333353406C0000203000002009
:1019800070000020400000204300002044000020A0
:1019900081B04FF000094FF0000CBDEB0A0F04DCE2
:1019A000BDEB0B0F01DBD446EA464BF8049BBBEBC7
:1019B0000A0FFAD1BCEB0A0F05DDE246D9F800B0F8
:1019C0000BF1040BF1E701B07047FFFF81B0FEE7B8
:1019D00001B0704781B002490248016001B0704710
:1019E00040190100B400002000F00EF800F03EFAAB
:1019F000FFF7F0FF00F0FAF9FFF75AFFFFF730FFAB
:101A0000FFF770FFFCE7FEE781B0CDF800E0464A43
:101A1000464B474C47494BF68030814206D94648F1
:101A2000006840F002014448016011E045F6C050F2
:101A3000814206D94048006840F001013E480160FB
:101A400006E03D4801686FF0070001403A48016038
:101A5000FFF7D0FE3948036039480460394802EA8C
:101A600000013948016002F0010040B119463648D2
:101A7000006800F00200002800D1F8E700E01946F5
:101A800002F4803040B10B462F48006800F400306B
:101A9000002800D1F8E700E00B4602F0805068B162
:101AA0002948006840F080512748016026480068B6
:101AB00000F00050002800D1F8E7FFE702F0806056
:101AC00078B12148006840F080611F4801601146EC
:101AD0001A461D48006800F00060002800D1F8E7B1
:101AE00001E011461A4601F0807070B11648006896
:101AF00040F080711448016011461348006800F0FE
:101B0000007000B9F9E70A46FFE70C48006800F0EA
:101B10000C01900000F00C00814200D0F5E7DDF8E8
:101B200000E001B0704700BF8100010502841D0084
:101B30004406010040190100002002400410024048
:101B40002C100240FFFF0F00001002403800000080
:101B500039000000FFFFFFFF000000000000000050
:101B60000000000000000000000000000000000075
:101B70000000000000000000000000000000000065
:101B8000180800001800000000000000000000001D
:101B90000000000000000000000000000000000045
:101BA0000000000000000000000000000000000035
:101BB000000000003000140835000000360000006E
:101BC000FFFFFFFF00000000000000000000000019
:101BD0000000000000000000000000000000000005
:101BE00000000000000000000000000018080000D5
:101BF00018000000000000000000000000000000CD
:101C000000000000000000000000000000000000D4
:101C100000000000000000000000000000000000C4
:101C200008000008090000000A000000FFFFFFFF95
:101C300000000000000000000000000000000000A4
:101C40000000000000000000000000000000000094
:101C5000000000000000000018080000180000004C
:101C60000000000000000000000000000000000074
:101C70000000000000000000000000000000000064
:101C80000000000000000000000000000400000050
:101C90002A0000002B0000002C000000FFFFFFFFC7
:101CA0000000000000000000000000000000000034
:101CB0000000000000000000000000000000000024
:101CC00000000000180800001808000018080000B4
:101CD0000000000000000000000000000000000004
:101CE00000000000000000000000000000000000F4
:101CF000000000000000000000112008202020202B
:101D000020204449474920504F5420436C69636B5D
:101D1000002D2D2D2D2D2D2D2D2D2D2D2D2D2D2D20
:101D20002D2D2D2D2D2D2D2D2D2D2D0020414443DC
:101D300020566F6C746167653A20200020560000C1
:101D40002D2D2D2D2D2D2D2D2D2D2D2D2D2D2D2DC3
:101D50002D2D2D2D2D2D2D2D2D2D004E614E003094
:101D600000494E4600FFFFFFD10E0000E90E0000C3
:101D7000DD0E000089130000951300007D130000A4
:101D80007113000035130000291300001D1300001B
:101D90004113000065130000FFFFFFFFFFFFFFFF7F
:101DA000FFFFFFFFFFFFFFFFFFFFFFFFFFFFFFFF43
:101DB000FFFFFFFFFFFFFFFFFFFFFFFFFFFFFFFF33
:101DC000FFFFFFFFFFFFFFFF000000000102030411
:101DD00001020304060708090700000004030000CD
:101DE00065090000890A00000204060800B5DFF852
:101DF00014B0DFF814A0DFF814C0FFF74FFD00BDEA
:101E0000704700BF0000002069000020FC1C00009B
:101E1000FFFFFFFFFFFFFFFFFFFFFFFFFFFFFFFFD2
:101E2000FFFFFFFFFFFFFFFFFFFFFFFFFFFFFFFFC2
:101E3000FFFFFFFFFFFFFFFFFFFFFFFFFFFFFFFFB2
:101E4000FFFFFFFFFFFFFFFFFFFFFFFFFFFFFFFFA2
:101E5000FFFFFFFFFFFFFFFFFFFFFFFFFFFFFFFF92
:101E6000FFFFFFFFFFFFFFFFFFFFFFFF00B5DFF8F2
:101E700010B0DFF810A0FFF78BFD00BD704700BF6A
:101E800000000020D0000020FFFFFFFFFFFFFFFF4A
:00000001FF
