:1000000081EF0EF00000000000EF00F000000000A3
:0A0010000000000000000000F3D71C
:0E001C000001FBB102D08B9A01D08B8A12003A
:0E002A000001FBB102D08B9801D08B88120030
:0E0038000001FBB102D08A9201D08A82120030
:0E0046000001FBB102D08B9401D08B8412001C
:0E0054000001FBB102D0899801D0898812000A
:0E0062000001FBB102D0899201D08982120008
:0E0070000001FBB102D08B9601D08B861200EE
:0E007E000001FBB102D08D9201D08D821200E4
:0E008C000001FBB102D08D9601D08D861200CE
:0E009A000001FBB102D0899401D089841200CC
:0E00A8000001FBB102D08B9601D08B861200B6
:0E00B6000001FBB102D08B9E01D08B8E120098
:0E00C4000001FBB102D0899001D089801200AA
:0E00D2000001FBB102D08B9C01D08B8C120080
:0E00E0000001FBB102D08B9001D08B8012008A
:0E00EE000001FBB102D08B9801D08B8812006C
:1000FC00FBC0C9FF016A0150000A05E1000EC7B040
:0C010C00010E016EF8D7C9CF01F01200FF
:0E0118000001FBB102D08D9001D08D8012004D
:0E0126000001FBB102D08D9401D08D84120037
:0E0134000001FBB102D08B9601D08B86120029
:100142000F0121B302D00000FBD7FBC01CFF12003D
:10015200FBC06AFF016A0150000A05E1000E68B0A7
:0C016200010E016EF8D76ACF01F0120008
:08016E000AAE029E000E120011
:0E017600ACB202D00000FCD7FBC0ADFF1200FF
:0E0184000001FBB102D08B9C01D08B8C1200CD
:0E0192000001FBB102D08B9E01D08B8E1200BB
:0E01A0000001FBB102D08B9801D08B881200B9
:0E01AE000001FBB102D08B9601D08B861200AF
:0E01BC000001FBB102D08B9A01D08B8A120099
:0E01CA000001FBB102D08B9801D08B8812008F
:0E01D8000001FBB102D08A9001D08A80120093
:0E01E6000001FBB102D08B9201D08B8212007F
:0E01F4000001FBB102D08B9801D08B88120065
:100202000B840BAE0CEF01F0010E036E026A016A61
:0A021200006A0A360232FF0E1200E5
:0E021C00026A016A006A086A036A000E120094
:0E022A000001FBB102D08F9401D08F8412002E
:10023800FBC0C9FF016A0150000A05E1000EC7B002
:0C024800010E016EF8D7C9CF00F01200C3
:0E0254000001FBB102D08B9801D08B88120004
:100262000B820BAE3BEF01F0036802680168006885
:080272000A360232FF0E1200F1
:0E027A000001FBB102D08B9A01D08B8A1200DA
:0E0288000001FBB102D08F9201D08F821200D4
:10029600FBC06AFF016A0150000A05E1000E68B062
:0C02A600010E016EF8D76ACF00F01200C4
:0E02B2000001FBB102D08A9401D08A841200B0
:0E02C0000001FBB102D08F9001D08F801200A0
:0E02CE000001FBB102D08B9601D08B8612008E
:0E02DC000001FBB102D08B9601D08B86120080
:0802EA000B6A0B86FF0E1200E7
:1002F200420E0001D36F010ED46FFB0ED56F000EBC
:10030200D66FFF0ED76FFF0ED86F000ED96F000E9B
:10031200DA6FFF0EDB6FFF0EDC6F000EDD6F000E7B
:10032200DE6FFF0EC76FFF0EC86F000EC96F000EA3
:10033200CA6F0F01218B900E226F98849892A4AA03
:0A03420003D01DCF00F0FBD712001E
:10034C000CB0E8EF01F00CA28EEF02F00E6A000E7A
:10035C000264FFEF01F0F00E0214D8A4CAEF01F012
:10036C00023A01380F0B02260138F00B016E0038EF
:10037C000F0B01260038F00B006E08380F0B00260F
:10038C000838F00B086E0E84D89002BEE3EF01F033
:10039C0008360036013602360E2A02BEE3EF01F0B3
:1003AC0008360036013602360E2A02BEE3EF01F0A3
:1003BC0008360036013602360E2A0E50036484EFDE
:1003CC0002F0035E0BBC08AE89EF02F0D880800E01
:1003DC0008640030000E002201220222D8A089EF0E
:1003EC0002F0023201320032034A8EEF02F089EF42
:1003FC0002F001C002F000C001F008C000F0086A71
:10040C00000E0E86026436EF02F0F00E0214D8A431
:10041C001EEF02F0023A01380F0B02260138F00BE6
:10042C00016E00380F0B01260038F00B006E0E84A5
:10043C00D89002BEE3EF01F00036013602360E2AE8
:10044C0002BEE3EF01F00036013602360E2A02BE80
:10045C00E3EF01F00036013602360E2AE3EF01F02D
:10046C0001C002F000C001F0006A000E0E960E886A
:10047C00026463EF02F0F00E0214D8A44EEF02F007
:10048C00023A01380F0B02260138F00B016E0E8474
:10049C00D89002BEE3EF01F0013602360E2A02BEFE
:1004AC00E3EF01F0013602360E2A02BEE3EF01F053
:1004BC00013602360E2AE3EF01F001C002F0016AA8
:1004CC00000E0E86026493EF02F0F00E0214D8A414
:1004DC0072EF02F0023A0E84D89002BEE3EF01F004
:1004EC0002360E2A02BEE3EF01F002360E2A02BEDD
:1004FC00E3EF01F002360E2AE3EF01F0010E0C6E71
:10050C007ADE96EF02F0020E0C6E2BDE96EF02F006
:10051C00040E0C6EA0DE96EF02F0080E0C6E78DE68
:02052C001200BB
:10052E00760E0001D36F010ED46FFB0ED56F000E49
:10053E00D66FFF0ED76FFF0ED86F000ED96F000E5D
:10054E00DA6FFF0EDB6FFF0EDC6F000EDD6F000E3D
:10055E00DE6FFF0EC76FFF0EC86F000EC96F000E65
:10056E00CA6FAC8A900EAB6E948E949C9EAA03D0EA
:08057E00AECF00F0FBD7120024
:10058600F250026EF29E0500FF6A0150FE6E0050A8
:08059600FD6E02BEF28E1200A0
:10059E00380E0001CF6F020ED06FFB0ED16F000E22
:1005AE00D26FFC0ECB6F000ECC6FFB0ECD6F000E1C
:1005BE00CE6F949AF751040A02E1948601D0949674
:1005CE009488C66AC79CC79EF751C612F951C612C7
:1005DE00F851C712F95305E0FA51000AD8B4C78C86
:0C05EE0003D0FA53D8A4C78CC68A1200B0
:1005FA0038D00F0120870D0E1F6F040E1E6F218544
:10060A0073DE7ED00F012087060E1F6F820E1E6FCB
:10061A0021856ADE75D00F012087030E1F6F400EF9
:10062A001E6F218561DE6CD00F012087010E1F6FBE
:10063A00A00E1E6F218558DE63D00F012087010EA0
:10064A001F6F150E1E6F21854FDE5AD00F012087AE
:10065A001F6B8A0E1E6F218547DE52D0060E006E72
:10066A0059D0000E006E0001F01908E10050EF1990
:10067A0005E1120EEE1902E1ED51C00ABAE0000ED0
:10068A00006EF01908E10050EF1905E1250EEE1988
:10069A0002E1ED51800AB6E0000E006EF01908E1A1
:1006AA000050EF1905E14B0EEE1902E1ED51000A77
:1006BA00B2E0000E006EF01908E10050EF1905E1F2
:1006CA00960EEE1902E1ED51000AAEE0000E006E40
:1006DA00F01908E10050EF1905E1E10EEE1902E107
:1006EA00ED51000AAAE0F051000A08E1EF51010AAF
:1006FA0005E1EE51C20A02E1ED51000AA7E0AED7C8
:10070A000001420EB76F010EB86FFB0EB96F000EF3
:06071A00BA6F006A120034
:1007200059D00001EEB102D0929001D092800F0119
:10073000259176D00001EEB102D0949001D0948042
:100740006FD00001EEB102D0969001D0968068D0B3
:100750000001EEB102D0949601D0948661D00001E0
:10076000EEB102D0949801D094885AD00001EEB135
:1007700002D0949A01D0948A53D00001EEB102D0F5
:10078000949201D094824CD00001EEB102D09390AB
:1007900001D0938045D00001EEB102D0949E01D0EB
:1007A000948E3ED00001EEB102D0949C01D0948C86
:1007B00037D00001EEB102D0949601D0948630D0AB
:1007C0000001EEB102D0949801D0948829D0010E96
:1007D000006E28D00001ED51000AA3E0ED51010A9E
:1007E000A9E0ED51020AADE0ED51030AB1E0ED518F
:1007F000040AB5E0ED51050AB9E0ED51060ABDE085
:10080000ED51070AC1E0ED51080AC5E0ED51090AB2
:10081000C9E0ED510A0ACDE0ED510B0AD1E0D7D77E
:06082000000E006E120044
:1008260021D0CF0EAF6EAC947FDE6BD0670EAF6E6D
:10083600AC947ADE66D0CF0EAF6EAC8475DE61D036
:10084600670EAF6EAC8470DE5CD0440EAF6EAC84C7
:100856006BDE57D0220EAF6EAC8466DE52D0060E2B
:10086600006E58D00001000E006EF01908E100502D
:10087600EF1905E1120EEE1902E1ED51C00AD1E0C1
:10088600000E006EF01908E10050EF1905E1250E83
:10089600EE1902E1ED51800AC9E0000E006EF01972
:1008A60008E10050EF1905E14B0EEE1902E1ED519A
:1008B600000AC1E0000E006EF01908E10050EF19C1
:1008C60005E1960EEE1902E1ED51000AB9E0000EBF
:1008D600006EF01908E10050EF1905E1E10EEE197E
:1008E60002E1ED51000AB1E0F051000A08E1EF51D2
:1008F600010A05E1EE51C20A02E1ED51000AAAE041
:10090600AED7760EB76F010EB86FFB0EB96F000E3D
:06091600BA6F006A120036
:10091C00B9C0E1FFBAC0E2FFEDC0E9FFEEC0EAFFEB
:10092C00EECFE6FFB7C000F0B8C001F026DE006ADB
:02093C001200A7
:10093E00080E0001ED25F66E000EEE21F76E000E8C
:10094E00EF21F86E0900F5CFBBF00900F5CFBCF032
:0E095E000900F5CFBDF00900F5CFBEF0120084
:10096C00EDC0F6FFEEC0F7FFEFC0F8FF0900F5CFC2
:10097C00C3F00900F5CFC4F00900F5CFC5F00900AC
:10098C00F5CFC6F0040E0001ED25F66E000EEE213B
:10099C00F76E000EEF21F86E0900F5CFBFF00900DD
:1009AC00F5CFC0F00900F5CFC1F00900F5CFC2F0CA
:0209BC00120027
:1009BE00EDC0F6FFEEC0F7FFEFC0F8FF0900F5CF70
:1009CE00F7F0040E0001ED25F66E000EEE21F76E27
:1009DE00000EEF21F86E0900F5CFF8F0080EED25A8
:1009EE00F66E000EEE21F76E000EEF21F86E090086
:1009FE00F5CFF9F00C0EED25F66E000EEE21F76E2A
:100A0E00000EEF21F86E0900F5CFFAF0C1DD000EF1
:040A1E00006E120054
:100A2200EDC0F6FFEEC0F7FFEFC0F8FF0900F5CF0B
:100A3200F7F0040E0001ED25F66E000EEE21F76EC2
:100A4200000EEF21F86E0900F5CFF8F0080EED2543
:100A5200F66E000EEE21F76E000EEF21F86E090021
:100A6200F5CFF9F00C0EED25F66E000EEE21F76EC5
:100A7200000EEF21F86E0900F5CFFAF08FDD000EBF
:040A8200006E1200F0
:100A860021D0CF0EAF6EAC944FDD6BD0670EAF6E3C
:100A9600AC944ADD66D0CF0EAF6EAC8445DD61D036
:100AA600670EAF6EAC8440DD5CD0440EAF6EAC8496
:100AB6003BDD57D0220EAF6EAC8436DD52D0060E2B
:100AC600006E58D00001000E006EF01908E10050CB
:100AD600EF1905E1120EEE1902E1ED51C00AD1E05F
:100AE600000E006EF01908E10050EF1905E1250E21
:100AF600EE1902E1ED51800AC9E0000E006EF01910
:100B060008E10050EF1905E14B0EEE1902E1ED5137
:100B1600000AC1E0000E006EF01908E10050EF195E
:100B260005E1960EEE1902E1ED51000AB9E0000E5C
:100B3600006EF01908E10050EF1905E1E10EEE191B
:100B460002E1ED51000AB1E0F051000A08E1EF516F
:100B5600010A05E1EE51C20A02E1ED51000AAAE0DE
:100B6600AED7760EB76F010EB86FFB0EB96F000EDB
:060B7600BA6F006A1200D4
:100B7C00EDC0F6FFEEC0F7FFEFC0F8FF0900F5CFB0
:100B8C00F7F0040E0001ED25F66E000EEE21F76E67
:100B9C00000EEF21F86E0900F5CFF8F0080EED25E8
:100BAC00F66E000EEE21F76E000EEF21F86E0900C6
:100BBC00F5CFF9F00C0EED25F66E000EEE21F76E6A
:100BCC00000EEF21F86E0900F5CFFAF0E2DC000E12
:040BDC00006E120095
:100BE00021D0CF0EAF6EAC94A2DC6BD0670EAF6E8F
:100BF000AC949DDC66D0CF0EAF6EAC8498DC61D037
:100C0000670EAF6EAC8493DC5CD0440EAF6EAC84E8
:100C10008EDC57D0220EAF6EAC8489DC52D0060E2B
:100C2000006E58D00001000E006EF01908E100506F
:100C3000EF1905E1120EEE1902E1ED51C00AD1E003
:100C4000000E006EF01908E10050EF1905E1250EC5
:100C5000EE1902E1ED51800AC9E0000E006EF019B4
:100C600008E10050EF1905E14B0EEE1902E1ED51DC
:100C7000000AC1E0000E006EF01908E10050EF1903
:100C800005E1960EEE1902E1ED51000AB9E0000E01
:100C9000006EF01908E10050EF1905E1E10EEE19C0
:100CA00002E1ED51000AB1E0F051000A08E1EF5114
:100CB000010A05E1EE51C20A02E1ED51000AAAE083
:100CC000AED7760EB76F010EB86FFB0EB96F000E80
:060CD000BA6F006A120079
:100CD60059D00001EEB102D0929201D092820F015A
:100CE600259376D00001EEB102D0929801D0928879
:100CF6006FD00001EEB102D0969201D0968268D0F4
:100D06000001EEB102D0949601D0948661D0000124
:100D1600EEB102D0949801D094885AD00001EEB179
:100D260002D0949A01D0948A53D00001EEB102D039
:100D3600949401D094844CD00001EEB102D09392E9
:100D460001D0938245D00001EEB102D0949E01D02D
:100D5600948E3ED00001EEB102D0949C01D0948CCA
:100D660037D00001EEB102D0949601D0948630D0EF
:100D76000001EEB102D0949801D0948829D0010EDA
:100D8600006E28D00001ED51000AA3E0ED51010AE2
:100D9600A9E0ED51020AADE0ED51030AB1E0ED51D3
:100DA600040AB5E0ED51050AB9E0ED51060ABDE0C9
:100DB600ED51070AC1E0ED51080AC5E0ED51090AF7
:100DC600C9E0ED510A0ACDE0ED510B0AD1E0D7D7C3
:060DD600000E006E120089
:100DDC005DD00001EEB102D0929401D092840F014B
:100DEC0025957AD00001EEB102D0969601D0968668
:100DFC0073D00001EEB102D0969401D096846CD0E1
:100E0C000001EEB102D0949601D0948665D0000119
:100E1C00EEB102D0949801D094885ED00001EEB16E
:100E2C0002D0949A01D0948A57D00001EEB102D02E
:100E3C00989001D0988050D00001EEB102D09394DC
:100E4C0001D0938449D00001EEB102D0989401D026
:100E5C0098840F01239540D00001EEB102D09892F6
:100E6C0001D098820F01239337D00001EEB102D04C
:100E7C00949601D0948630D00001EEB102D09498B3
:100E8C0001D0948829D0010E006E28D00001ED51BC
:100E9C00000A9FE0ED51010AA5E0ED51020AA9E01C
:100EAC00ED51030AADE0ED51040AB1E0ED51050A34
:100EBC00B5E0ED51060AB9E0ED51070ABDE0ED5180
:100ECC00080AC1E0ED51090AC7E0ED510A0ACDE06C
:0E0EDC00ED510B0AD1E0D7D7000E006E1200C8
:100EEA000450000A12E10550000A0FE10650000AF8
:100EFA000CE10750000A09E1FF0E006EFF0E016EB9
:100F0A007F0E026EFF0E036EA8D0086A096A0750A8
:100F1A00D8B420EF08F00350D8B425EF08F00250F7
:100F2A0006180A6E028E068E0E6A02C008F001C00A
:100F3A000CF000C00DF004500D5E0550D8A0053C21
:100F4A000C5E0650D8A0063C085E086A0C6A0D6A58
:100F5A00D8A0B7EF07F0D890023201320032083237
:100F6A00010E0E6E0750035ED8A0C4EF07F07E0E86
:100F7A000E240326D8B02AEF08F0CAEF07F07E0E37
:100F8A000E240326D8A02FEF08F0180E0B6E0D368C
:100F9A000C3608360036013602360E360450005E2C
:100FAA000550D8A0053C015E0650D8A0063C025E5A
:100FBA0006340E120EA0E5EF07F00D80F0EF07F0F1
:100FCA00045000260550D8B0053C01260650D8B07A
:100FDA00062802260D900B2ECCEF07F016EF08F02C
:100FEA00D8900036013602360E360450005E05509F
:100FFA00D8A0053C015E0650D8A0063C025E063425
:10100A000E10010B0D26D8B00C2AD8B4082AD8A481
:10101A0016EF08F008320C320D32032AD8B42AEF40
:10102A0008F00AAE089E0850026E0C50016E0D5070
:10103A00006E32EF08F0010E75EC01F032EF08F0A5
:10104A00020E0EEC01F032EF08F0040E31EC01F062
:0C105A0032EF08F0080E01EC01F012006B
:10106600EDC0F1F0EEC0F2F0EFC000F0F0C001F01C
:10107600010E0001EF5F000EF05B0050011014E05E
:10108600C5C0E1FFC6C0E2FFF1C0E9FFF2C0EAFF5A
:10109600EECFE6FFC3C000F0C4C001F0C3EC02F01F
:0A10A6000001F14BF22BE0D712001D
:1010B000EDC004F0EEC005F004C002F005C003F07E
:1010C000044A052AEFC000F0F0C001F00001EF4B28
:1010D000F02B00C0E9FF01C0EAFF02C0E1FF03C03E
:1010E000E2FFEECFE6FF02C0E9FF03C0EAFFEE52E7
:0E10F00001E0E2D7EDC000F0EEC001F012000A
:1010FE00EDC0F3F0EEC0F4F0EFC0F5F0F0C0F6F096
:10110E00F1C000F0F2C001F0010E0001F15F000E1F
:10111E00F25B005001101CE0C1C0E1FFC2C0E2FF53
:10112E00F3C0E9FFF4C0EAFFEECFE6FFBFC000F068
:10113E00C0C001F0C3EC02F0F5C0E1FFF6C0E2FF63
:10114E0000C0E6FF0001F54BF62BF34BF42BD8D77E
:02115E0012007D
:1011600000C008F00B6A0C6A9E0E036E0A6A026ADF
:0E117000016A006A020E0C6EA6EC01F012007D
:10117E00086A096A000E0762036444EF09F0025020
:10118E0006180A6E075003267E0ED8A0D5EF08F07B
:10119E00035ED8B049EF09F0D9EF08F0035ED8A08E
:1011AE004EEF09F0028E068E02C00EF001C00BF05B
:1011BE0000C00DF000500402F4CF0CF001500502F7
:1011CE00F4CF00F0F3CF08F00402F3500C26F450E5
:1011DE000822000E00220D500502F3500C26F4508A
:1011EE000822000E002202500402F3500826F4508A
:1011FE00002202500502016A000E0122F350002661
:10120E00F45001220D500602F3500826F45000222D
:10121E00026A000E012202220B500602F350002633
:10122E00F4500122000E02220E500602F350012647
:10123E00F450022202BE2CEF09F0083600360136B9
:10124E0002360306D8B44EEF09F03FEF09F0D8800E
:10125E00800E08640030000E002201220222D8A067
:10126E003FEF09F0023201320032034A49EF09F032
:10127E000AAE029E000E51EF09F0010E0EEC01F0C7
:10128E0051EF09F0020E31EC01F051EF09F0040EAE
:06129E0001EC01F012005A
:1012A4000A6A0350D8A40A800750D8A40A820A50B4
:1012B400D8B4B5EF09F0030AD8B46EEF09F00AB058
:1012C40069EF09F006AEB3EF09F0B1EF09F002AE31
:1012D400B1EF09F0B3EF09F00250800B0A6E029EE1
:1012E4000650800B069E0A18D8B47FEF09F00A5006
:1012F400D8B4B1EF09F0B3EF09F00750035CD8B4E8
:1013040089EF09F0D8A0A5EF09F0ABEF09F006507A
:10131400025CD8B493EF09F0D8A0A5EF09F0ABEFC5
:1013240009F00550015CD8B49DEF09F0D8A0A5EFF1
:1013340009F0ABEF09F00450005CD8B4B5EF09F044
:10134400D8B0ABEF09F00A52D8B4B3EF09F0B1EF5B
:1013540009F00A52D8B4B1EF09F0B3EF09F0D8801C
:0E1364001200D8901200D880D8841200120017
:101372000D6A086A0050D8B4000C04180A6E0ABE3E
:101382000D1E0B6A04AE02D0041E042A00AE02D067
:10139200001E002A005004100A6E0ABE1FD004501C
:1013A200085E003600340836045008260036060E61
:1013B2000C6E00340836045000B0085E00A0082607
:1013C20000360C2EF6D700A008260BB015D00DAEB5
:1013D200000C001E002A081E082A000C04AE09D0C8
:1013E20000BE04D00050086E006AF1D7006A002ADD
:1013F200000C001E0B2AD3D7082A0450085CD8A47C
:0E140200E6D7086A002A00AEE2D7FF0C1200FF
:10141000090E0B6E1E0E0C6EE40E0D6E0D2EFED719
:0C1420000C2EFCD70B2EFAD70000120097
:10142C00DFC0E0F0BDC0E1FFBEC0E2FFE66ABBC0BA
:10143C0000F0BCC001F0C3EC02F0E10E0001ED6F56
:10144C00000EEE6FE00EEF6F000EF06F010EF16FFD
:10145C00000EF26F4EDEBDC0E1FFBEC0E2FF010E1A
:10146C00E66EBBC000F0BCC001F0C3EC02F0E1C002
:04147C0000F012006A
:1014800016D0E0C0EDF0E1C0EEF090EC03F01AD021
:10149000E0C0EDF0E1C0EEF01EDC14D0E0C0EDF0F5
:1014A000E1C0EEF09BDC0ED0010E006E0BD000010F
:1014B000DF51000AE6E0DF51010AEAE0DF51020AEB
:0614C000EDE0F2D712007E
:1014C600520E0B6E2B0E0C6E000E0D6E0D2EFED7F1
:0C14D6000C2EFCD70B2EFAD700001200E1
:1014E2001ED0E0C0EDF0E1C0EEF0E2C0EFF0BEECE5
:1014F20005F020D0E0C0EDF0E1C0EEF0E2C0EFF088
:10150200DFEC04F017D0E0C0EDF0E1C0EEF0E2C095
:10151200EFF011EC05F00ED0010E006E0BD00001C1
:10152200DF51000ADEE0DF51010AE4E0DF51020A86
:06153200EAE0F2D712000E
:101538000001E06BDFC0E1F0200EE26FDFC0E3F0F6
:10154800BDC0E1FFBEC0E2FFE66ABBC000F0BCC0A0
:1015580001F0C3EC02F058DFE00E0001ED6F000E61
:10156800EE6F040EEF6F000EF06F79DDBDC0E1FF86
:10157800BEC0E2FF010EE66EBBC000F0BCC001F0C9
:06158800C3EC02F01200AA
:10158E00E2C0EDF0E3C0EEF0E4C0EFF0B6EC04F034
:10159E00DFC0EDF0E0C0EEF0E1C0EFF09FEC04F044
:1015AE00BDC0E1FFBEC0E2FFE66ABBC000F0BCC03A
:0815BE0001F0C3EC02F0120081
:1015C600DFC0E2F0E0C0E3F00D0E0001E46F0A0EAA
:1015D600E56F3AD0E2C0EDF0E3C0EEF08EEC04F039
:1015E6003ED0E2C0E9FFE3C0EAFFEE520AE0E2C005
:1015F600EDF0E3C0EEF08EEC04F00001E24BE32BDD
:10160600F0D72DD0E2C0E9FFE3C0EAFFEE520AE0D0
:10161600E2C0EDF0E3C0EEF08EEC04F00001E24B28
:10162600E32BF0D70001E40EED6F000EEE6F8EECAB
:1016360004F0E50E0001ED6F000EEE6F8EEC04F087
:101646000ED0060E006E0CD00001E151000AC2E079
:10165600E151010AC6E0E151020AD4E0F2D7006A7C
:02166600120070
:101668000001E16BE26BDFC003F0E0C004F0DFC013
:1016780005F0E0C006F003C0E9FF04C0EAFFEE5041
:10168800200A04E1E151E21101E110D0010EE16FFD
:10169800000EE26F03C0E9FF04C0EAFF05C0E1FFE6
:1016A80006C0E2FFEECFE6FF054A062A03C001F0B6
:1016B80004C002F0034A042A01C0E9FF02C0EAFF9D
:1016C800EE50000AD8E1DFC000F0E0C001F01200DF
:1016D800DFC000F041DDE0C004F0E1C005F0E2C089
:1016E80006F0E3C007F047DD000E046E000E056E3D
:0E16F8007F0E066E860E076E75EC07F0120070
:101706002FD0E0C0EDF0E1C0EEF0E2C0EFF0E3C0B4
:10171600F0F043EC05F032D0E0C0EDF0E1C0EEF0C1
:10172600E2C0EFF0E3C0F0F0F0EC05F027D0E0C047
:10173600EDF0E1C0EEF0E2C0EFF0E3C0F0F0FDEC5A
:1017460002F01CD0E0C0EDF0E1C0EEF0E2C0EFF038
:10175600E3C0F0F013EC04F011D0010E006E0ED0D1
:101766000001DF51000ACDE0DF51010AD5E0DF516B
:0E177600020ADDE0DF51100AE5E0EFD71200B5
:101784000001EB6BEC6BDFC0E7F0E0C0E8F0E1C018
:10179400E9F0E2C0EAF0EA51FF0A08E1E951FF0A80
:1017A40005E1E851FF0A02E1E751FF0A0CE1E3C059
:1017B400EDF0E4C0EEF05B0EEF6F000EF06F76DC40
:1017C400030E006EEAD1010EE56FE9AF0ED0800E74
:1017D400E919006E00C0E9F0E52BE3C0E1FFE4C0C5
:1017E400E2FF2D0EE66EE34BE42B000E006EEA19C9
:1017F40008E10050E91905E10050E81902E1E75158
:10180400000A0BE1E3C0EDF0E4C0EEF0590EEF6F17
:10181400000EF06F4BDC006AC0D1EA51FF0A08E108
:10182400E951000A05E1E851000A02E1E751000A22
:101834000CE1E3C0EDF0E4C0EEF05F0EEF6F000EDC
:10184400F06F34DCE5C000F0A8D1000E046E000E89
:10185400056E000E066E7F0E076EE7C000F0E8C04E
:1018640001F0E9C002F0EAC003F01ADD010ED8B0BD
:10187400000E006E00521BE0E7C000F0E8C001F06B
:10188400E9C002F0EAC003F0000E046E000E056E1B
:10189400200E066E820E076E70DC00C0E7F001C0F9
:1018A400E8F002C0E9F003C0EAF0EC07CED7000E7E
:1018B400046E000E056E200E066E820E076EE7C0E3
:1018C40000F0E8C001F0E9C002F0EAC003F0E8DC8F
:1018D400000ED8B0010E006E00521BE0E7C000F00D
:1018E400E8C001F0E9C002F0EAC003F0CD0E046ED6
:1018F400CC0E056E4C0E066E7B0E076E3EDC00C0F1
:10190400E7F001C0E8F002C0E9F003C0EAF0EC2B14
:10191400CED7FF0EE715086EFF0EE815096E7F0E91
:10192400E9150A6E000EEA150B6E08C004F009C032
:1019340005F00AC006F00BC007F004360490053623
:1019440006360736000EE715006E000EE815016E28
:10195400000EE915026EFF0EEA15036E00C0E7F0F3
:1019640001C0E8F002C0E9F003C0EAF00450E71156
:10197400006E0550E811016E0650E911026E075021
:10198400EA11036E00C0E7F001C0E8F002C0E9F01C
:1019940003C0EAF07F0EEA5D006E00C0E6F0010EBF
:1019A400EA6F00C004F0E7C000F0E8C001F0E9C04D
:1019B40002F0EAC003F0045007E00036009001365C
:1019C40002360336FF0FF8D700C0E7F001C0E8F095
:1019D40002C0E9F003C0EAF0E3C0E1FFE4C0E2FFC3
:1019E400EA51300FE66EE34BE42B800EEC19006EE7
:1019F400800E010A005C08E3800E060A006E800E69
:101A0400EC19005C01E30AD0E3C0E1FFE4C0E2FFAB
:101A14002E0EE66EE34BE42B010EEB6F060EE66F23
:101A2400E651000A54E0EA6BE7C000F0E8C001F0B8
:101A3400E9C002F0EAC003F0003600900136023635
:101A4400033600360090013602360336E75100268D
:101A5400E8510122E9510222EA51032200C0E7F0D1
:101A640001C0E8F002C0E9F003C0EAF0E7C000F00A
:101A7400E8C001F0E9C002F0EAC003F000360090CB
:101A840001360236033600C0E7F001C0E8F002C0B8
:101A9400E9F003C0EAF0E3C0E1FFE4C0E2FFEA5189
:101AA400300FE66EE34BE42BEB51000A0EE1EC073A
:101AB400EC51000A0AE1E3C0E1FFE4C0E2FF2E0EAC
:101AC400E66EE34BE42B010EEB6FE607A9D7FF0E9E
:101AD400E325E96EFF0EE421EA6EEE50300A05E1DB
:101AE400010EE35F000EE45BF2D7FF0EE325E96E1F
:101AF400FF0EE421EA6EEE502E0A04E1010EE35FCC
:101B0400000EE45BEC51000A42E0E3C0E1FFE4C0F4
:101B1400E2FF650EE66EE34BE42B800EEC19006EDB
:101B2400800E000A005C0BE2E3C0E1FFE4C0E2FFC8
:101B34002D0EE66EE34BE42BEC510008EC6FECC089
:101B4400E6F0800E090A006E800EEC19005C0EE2CD
:101B54000A0E046EE6C000F00ADCE3C0E1FFE4C054
:101B6400E2FF0050300FE66EE34BE42B0A0E046EE6
:101B7400E6C000F0B9EC09F008C000F0E3C0E1FFF2
:101B8400E4C0E2FF0050300FE66EE34BE42BE3C009
:0C1B9400E1FFE4C0E2FFE66A006A120014
:101BA0000001DF6B020EE06FE16B6ADC0001DF6BAE
:101BB000D90EE06F1D0EE16F000EE26F92DC010E98
:101BC000DF6F800EE06F250EE16F000EE26FE36FB6
:061BD0009ADD1EDC12008C
:101BD6000900F5CFE6FF0006FBE10106F9E1120078
:101BE600640E0001B56F000EB66F010EB65D02E120
:101BF600000EB55D5AE2B5C0DFF09BDC61DC050E78
:101C06000001DF6F10DC00C0B4F05ADCB4C0DFF0B6
:101C1600330E0001E06F330EE16F530EE26F800E5C
:101C2600E36F57DD00C07EF001C07FF002C080F098
:101C360003C081F0150E0001DF6F000EE06F010E8C
:101C4600E16FBEDC7EC0DFF07FC0E0F080C0E1F077
:101C560081C0E2F0820E0001E36F000EE46F8FDDBB
:101C6600820EDF6F000EE06FFCDC820EDF6F000E6F
:101C7600E06F010EE16FA4DC250E0001DF6F000EA0
:101C8600E06F020EE16F9CDC580E0001DF6F000E64
:101C9600E06F020EE16F94DC13DC12DC11DC0A0E3D
:101CA6000001B527000EB623A0D7630EDF6F000E26
:0A1CB600E06F020EE16F84DC120003
:101CC000790E0001DF6F1D0EE06F000EE16FE90E6F
:101CD000E26F1D0EE36F000EE46F59DC430E00014E
:101CE000DF6F000EE06F020EE16F6DDC280E000169
:101CF000DF6F000EE06F020EE16F65DC08EC0AF0AA
:021D00001200CF
:0E1D0200F9EC0EF04CDFDBDF6DDFFED7FFD714
:101DF20010EE15F0690E006E010E016E100EF66EF9
:0E1E02001D0EF76E000EF86EEBEC0DF01200E8
:101D10002041444320566F6C746167653A2020006F
:031D20002056004A
:101D23002D2D2D2D2D2D2D2D2D2D2D2D2D2D2D2DE0
:0B1D33002D2D2D2D2D2D2D2D2D2D00E3
:101D3E002020202020204449474920504F54204342
:051D4E006C69636B00ED
:011D5300008F
:021D540030005D
:041D56004E614E008C
:041D5A00494E4600A8
:101D5E002D2D2D2D2D2D2D2D2D2D2D2D2D2D2D2DA5
:0B1D6E002D2D2D2D2D2D2D2D2D2D00A8
:101D7900C400FB00E000FB001801FB003401FB007C
:101D8900CA01FB00BC01FB00E601FB00D801FB0016
:101D99009201FB008401FB00AE01FB00A001FB00E6
:101DA900FFFFFFFFFFFFFFFFFFFFFFFFFFFFFFFF3A
:101DB900FFFFFFFFFFFFFFFFFFFFFFFFFFFFFFFF2A
:101DC900FFFFFFFFFFFFFFFFFFFFFFFFFFFFFFFF1A
:101DD90002000000000000000000000001000000F7
:081DE900FC00FB003802FB00C6
:020000040030CA
:0E00000015137F7CF98B91FFFFC0FFE0FF40DE
:00000001FF
